:020000040800F2
:10000000F8210020DD1D000821500008C91D00084E
:10001000C91D0008C91D0008C91D00080000000016
:10002000000000000000000000000000911E000819
:10003000C91D0008000000003D1E0008193000081E
:10004000B11F0008B11F0008B11F0008B11F000850
:10005000B11F0008B11F0008B11F0008B11F000840
:10006000B11F0008B11F0008B11F0008B11F000830
:10007000B11F0008B11F0008B11F0008B11F000820
:10008000B11F0008B11F0008B11F0008B11F000810
:10009000B11F0008B11F0008B11F0008B11F000800
:1000A000B11F0008B11F0008B11F0008B11F0008F0
:1000B000B11F0008B11F0008B11F0008B11F0008E0
:1000C000B11F0008B11F0008B11F0008B11F0008D0
:1000D000B11F0008B11F0008B11F0008B11F0008C0
:0C00E000B11F0008B11F0008B11F00088C
:1000EC0053B94AB9002908BF00281CBF4FF0FF3193
:1000FC004FF0FF3000F00CB8ADF1080C6DE904CEF8
:10010C0000F023F8DDF804E0DDE9022304B07047C9
:10011C00704700BF034613F8012B002AFBD1181AB5
:10012C0001387047430803F05533C01A00F03333DD
:10013C00800800F0333018444FF0013300EB1010FE
:10014C0000F00F305843000E70472DE9F0478646FB
:10015C008C460846154674461946089E002B40F0FE
:10016C00C2808542B2FA82F245D94AB1C2F120036B
:10017C0000FA02FC2EFA03F3954043EA0C0C94406F
:10018C004FEA154EBCFBFEF8A8B20EFB18CC08FBD0
:10019C0000F9230C43EA0C43994528D9EB1808F1D4
:1001AC00FF3704D2994502D9A8F102072B44A3EBDF
:1001BC000903B3FBFEFC0EFB1C330CFB00F0A4B2DA
:1001CC0044EA0344A04214D92C190CF1FF3304D295
:1001DC00A04202D9ACF102032C44241A43EA074092
:1001EC001EB10023D44034607360BDE8F0874746ED
:1001FC00DDE76346F1E792BB0121431B4FEA154E45
:10020C00B3FBFEFCAFB20EFB1C330CFB07F8200C4F
:10021C0040EA0343984562D9EB180CF1FF3004D245
:10022C00984502D9ACF102002B44A3EB0803B3FBB5
:10023C00FEFC0EFB1C330CFB07F7A4B244EA034490
:10024C00A7424ED92C190CF1FF3304D2A74202D984
:10025C00ACF102032C44E41B43EA0040C0E7C2F1BA
:10026C002003954020FA03F12EFA03F34FEA154EC2
:10027C00B1FBFEFC90400343AFB20EFB1C100CFB19
:10028C0007F8190C41EA0041884504FA02F422D916
:10029C0069180CF1FF3004D2884502D9ACF1020088
:1002AC002944A1EB0801B1FBFEFC0EFB1C110CFB5D
:1002BC0007F79BB243EA01439F420ED9EB180CF1AE
:1002CC00FF3104D29F4202D9ACF102012B44DB1B5B
:1002DC0041EA004192E76046E3E76146F7E7604692
:1002EC00A3E76346B7E7834206D916B9002108464F
:1002FC007BE7C6E900E0F9E7B3FA83F78FB98342ED
:10030C0001D3724508D8BEEB020460EB0303012055
:10031C009C461EB9002168E73846FAE7C6E9004C4E
:10032C00F8E7C7F1200CBB4022FA0CF41C434FEA4F
:10033C00144920FA0CF3B3FBF9F8B8402EFA0CF17F
:10034C0001430EFA07F509FB18301FFA84FE08FB6F
:10035C000EFA0B0C43EA00439A4502FA07F240D915
:10036C00E31808F1FF3004D29A4502D9A8F1020033
:10037C002344A3EB0A03B3FBF9F809FB183308FB7E
:10038C000EFE89B241EA03418E452CD9611808F161
:10039C00FF3304D28E4502D9A8F10203214443EA6B
:1003AC000040A0FB0298A1EB0E014145CE4643460E
:1003BC0002D306D14D4504D2B9EB020E68EB04030F
:1003CC000138002EA6D0B5EB0E0261EB030101FA49
:1003DC000CFC22FA07F34CEA0303F940C6E900319E
:1003EC0098E74046C5E74346D9E70000F0B587B02B
:1003FC001422002101A805F070FB012302930223B3
:10040C0004930C238DF81430134B144D9E68144F29
:10041C0003951148736801A99847044620B1114807
:10042C0004F0FCF907B0F0BD3846B5F9001004F043
:10043C00F5F940F2DC53B5F9002005219A42CCBF06
:10044C0001222246084804F018F9002142F21070EB
:10045C0005F0A0FADDE700BFA85D0008EE0900205A
:10046C0009630008F2620008485D000870B586B0A8
:10047C001422002101A805F030FB10230293022363
:10048C0004930C238DF81430104B114C9D68114EB5
:10049C0003940E486B6801A9984720B10E4804F0EC
:1004AC00BDF906B070BD3046B4F9001004F0B6F9D1
:1004BC00B4F90030B3F5487F02DD084804F0AEF91A
:1004CC00002142F2107005F065FAE2E7A85D000821
:1004DC00EC0900202B630008146300083663000845
:1004EC00F0B589B0254C204605F08EF928B9244882
:1004FC0004F094F9002009B0F0BDA56820462B68E3
:10050C0020499847204920462B6898471F4C204685
:10051C0005F07AF908B91E48EAE72269A168136860
:10052C00204623F0200313600B684FF4C0220521F2
:10053C009847184804F072F9002600270024052576
:10054C004FF48062CDE90667CDE90354CDE901444F
:10055C00114B12490094124803F096F84FF4806244
:10056C00CDE90667CDE90354CDE901440D4B0E49A5
:10057C0000940E4803F088F8BCE700BFA85D0008A3
:10058C0047630008E6620008E0620008485D000866
:10059C005D6300086C630008F9030008F80D002087
:1005AC00E001002079040008F80900207001002007
:1005BC002DE9F04F91B0009302F004030293C2F3C3
:1005CC00C2030133840705460E46DDF868800392AA
:1005DC00059340F0BB81041D30B1072909D86FF099
:1005EC001B0011B0BDE8F08F01F007063444C6F1D2
:1005FC000806009B4FF000094FF0040A591E4FF0FB
:10060C00FF334F460193CB465346CDF810900DB1B6
:10061C00009A22600598002800F3E8809848009A18
:10062C00824203D397488242C0F0E080039AA4EB45
:10063C00050E92074FEA9E0000F103810F2F00F286
:10064C00B180002D00F0058107F140020DEB020C8A
:10065C00019A0CF8200C0CF8102C04980130049022
:10066C00E7E07A285DD84B280ED8472859D8292896
:10067C002DD8252852D054D820287AD02338D0F120
:10068C00000B4BEB000B74E04C382E2849D8DFE8FC
:10069C0000F07048484848484848484848484B4843
:1006AC004848484848484859484B4B595959704B49
:1006BC006D487048184B184848827F4B48484B4847
:1006CC007F0000204FF0000B4FF0040A38E00122AD
:1006DC002A38C0B202FA00F010EA0E0F49D110F01D
:1006EC00625C2FD110EA020B43D06046013C5444AB
:1006FC00B4FBFAF40AFB04F4002D61D0A3EB050C57
:10070C00A444B4453FF66BAF002868D1042B47D105
:10071C0058F8043B2360042304342AE0019A013A7C
:10072C0001924FF0000B24E011F8010C6C2834D12D
:10073C00002011F8023C83466C2BC5D14FF0080AFF
:10074C005346D3E708F1070828F00708073424F0CC
:10075C000704F8E802AB35B106982044B0423FF6E6
:10076C003EAFC4E900AB4FF0000B08344FF0080A61
:10077C00534611F8010F002878D0BBF1000F7FF41D
:10078C0070AF2528F5D14FF0010B019B013301937C
:10079C004FF0040AECE7584694E700208346A5E79F
:1007AC00082B02D06FF015001BE708F1070828F0A2
:1007BC000708F8E80223C4E9002308230834D8E723
:1007CC0068B9042B02D108F10408A4E7082BE9D17D
:1007DC0008F1070828F0070808F10808EDE7059A62
:1007EC00013A059258F8042B009210E7039A9007EF
:1007FC0020D54FF0010CA4EB050E4FEA9E00BEF580
:10080C00007FCFD20F2FCDD8F5B107F140020DEB01
:10081C00020E019AC0B20EF8200C0EF8102CBCF18E
:10082C00000F3FF41AAF60F07F000EF8200C09F1B6
:10083C0001090137C5F108024FF6DA7E043406923D
:10084C0097E74FF0000CDAE7BCF1000F01D001364E
:10085C00EFE7029802360028EBD10098CDE906317B
:10086C00FFF758FCDDE906310644E2E7631BB3F5FC
:10087C00806F97D245B9A6F10804E018B1E600BF25
:10088C00E05B0008286E0008029A9B0828602B7019
:10089C009DF81030C2B1EB7085F80290B9F1000FE1
:1008AC0005D0002208A8C5F1010C97420ED14FF0DB
:1008BC00000AC5F101030DF1200801930DF1300B75
:1008CC00574512D1601B8CE66B70E5E710F8013BC5
:1008DC00190608D50CEB040EB64503F07F033FF662
:1008EC007EAE04F8013B0132DFE7B9F1000F03D013
:1008FC0098F90020002A17DB029BD3B11AF80B20C1
:10090C0004F8012B0022019B18191044B0423FF649
:10091C0066AE98F80000009904F8010B204603928B
:10092C0005F0CDF8039A14440AF1010A08F1010804
:10093C00C6E798F8002055F822300093029B0098E7
:10094C0045F82230FFF7E6FB421CDCE76FF00D00A8
:10095C0047E600BF2DE9F04F97B000AFD7F880B055
:10096C007B62CBF3C0030446894690F802A0FA627E
:10097C00BB6141B9457800780AEB800020444D45B5
:10098C0017D8A0EB0409E378FB61BAF1000F02D091
:10099C001BF0010F16D1FB6953BBFB6A1BB1494617
:1009AC0020467A6A98474D4628465C37BD46BDE8D6
:1009BC00F08F461C3046FFF7ADFB0130304409F197
:1009CC000109DCE762682378BA62FA6A99007961F6
:1009DC0004EB8301002A40F001810E464FF0000821
:1009EC004D4601EB0A094E454CD101EB0A0610E0CD
:1009FC001BF0020FD1D023789A007A61626804EB65
:100A0C008301BA62FA6A002A77D14D46904601EB0F
:100A1C000A061BF0050F0CBF02230123FB62FB69C6
:100A2C0006EB430A0BF002037B625645BCD016F86A
:100A3C00021B16F8013C54F823909A4B994502D3AB
:100A4C00994B994536D3BB69002B40D0B86A03F05B
:100A5C00BEFE00283BD0E9468AB06A46934B5361F0
:100A6C00BB6AC2E906314FF400731384904B42F811
:100A7C00103F00234FF412518E4800F031FC023D20
:100A8C00CD46D2E716F8013BF96254F82300FFF784
:100A9C0041FBD7F88430F96A01304BB1D7F8883074
:100AAC0098453EBFD7F8843023F8180008F10108A8
:100ABC00054498E7BB6923B1B86A03F088FE0028A7
:100ACC00C9D11BF0010F05D1FB6AED1AADE77B6AAA
:100ADC00002BAAD04846FFF71DFBD7F8843053B142
:100AEC00D7F8883098453FBFD7F88420431C22F8AC
:100AFC00183008F10108054497E7BAF1000F73D0DC
:100B0C001BF0040673D0D046002607F1480052466D
:100B1C003B61396204F0D3FF396A3B6901EB0A028D
:100B2C003A62FA695200FA60D7E9071202EB410205
:100B3C003A610BF00202BA603A69396A8A4258D1BA
:100B4C0062781BF0020F18BF0021BA6208BF4FEA8F
:100B5C005801B2181BF0010FD2B240F0A1801BF06B
:100B6C00040F14BF40460020BB616270A070E1709E
:100B7C0020467A6A7969FB6A9847051EFFF614AF1E
:100B8C00BB6941462370BB6A7A6A6370FB6984F85F
:100B9C0002A0E37007F14800FB6A9847B0F1000827
:100BAC00C0F2BC807B69A9EB0A01C91AFB687A6A9E
:100BBC00C91A386AFB6A98470028C0F2B1804FF016
:100BCC00000BA84408EB000507F1380AB34573D3B2
:100BDC0000217A6A0846FB6A9847E5E656464FF0CC
:100BEC00000807F1380092E75646D04696E7B04623
:100BFC0094E73A6A12F8021B12F8015C3A6254F854
:100C0C002500284A904202D3274A904220D3BA6941
:100C1C0032B1B86A7B6003F0DAFD7B6800288BD1B7
:100C2C00BA6812BB08F1280208F1010007F1300C78
:100C3C00C0B294440CF8101C00F1280207F13001EA
:100C4C0008F1020850185FFA88F800F8105C73E796
:100C5C00BA693AB1B86A7B6003F0B9FD7B680028C9
:100C6C007FF46AAF1BF0010F09D006F1280207F1DF
:100C7C003000711C161806F8205CCEB25CE71BF035
:100C8C00040F3FF459AF08F1280207F1300008F1C6
:100C9C00010102EB000808F8105C5FFA81F84BE7E1
:100CAC00002061E7E05B0008286E00089D630008E7
:100CBC0004000001985F00081BF80A3054F82390D8
:100CCC0087F83730D7F884302BB3D7F888309B456A
:100CDC0021D2D7F8843033F81B8001217A6AFB6A61
:100CEC0007F13700984700281ADB0544B8F1000FCC
:100CFC0006D14846FFF70EFA00F101081FFA88F8F2
:100D0C00414648467A6AFB6A9847002808DB054446
:100D1C000BF1010B5AE74FF00008DEE7454643E6BE
:100D2C00054641E6014B1860704700BFA800002043
:100D3C0080B505460E461746984602F0F1FE03466E
:100D4C0004F03EFF0446DFF81890424649F80030A4
:100D5C0039463046A84754F8090001F053F800BF53
:100D6C0008000000074B00205A6822F001025A606C
:100D7C005A6822F002025A605A6822F004025A6041
:100D8C00704700BF002004E0044A136843F01003CE
:100D9C001360034B034A1A60704700BF00200240E7
:100DAC00E800002000127A002DE9F04704460746BF
:100DBC004FF00109DFF8508014B93846BDE8F087D0
:100DCC0094FAA4F5B5FA85F509FA05F32E0108EBAA
:100DDC0005156FEA030A24EA03042B7B002BEBD0E6
:100DEC0058F806301B694BB94644736804222846F0
:100DFC00196807EA0A0703F0C5FFDDE7284698479C
:100E0C000028D9D1F0E700BFE05F000830B5002220
:100E1C0089B00F490F4804F02AFE00220023002459
:100E2C00CDE906230E230C4DCDE903344FF440726B
:100E3C002846CDE90144094B0949009402F024FCF1
:100E4C000849284604F010FD204609B030BD00BF0B
:100E5C00750E0008C80600205002002091110008F1
:100E6C00F811002065640008014802F07BBB00BF4C
:100E7C005C0100202DE9F047804620480F4603F026
:100E8C0059FF0646002832D000252846BDE8F087D9
:100E9C00237B83B12368DB680BB1204698476368DA
:100EAC0083F8069023681B69CBB96368042220463B
:100EBC00196803F067FF013610345445E8D3B8F1D4
:100ECC00000FE2D0002DDFD02846FFF76DFF05465E
:100EDC00002FF7D00021642004F05CFDF2E72046DF
:100EEC0098470028E1D009FA06F31D43E3E70546CD
:100EFC004FF00109024CDFF80CA0DEE7900800204F
:100F0C00E05F0008F05F0008014B53F820007047C9
:100F1C000460000808B5034608462BB1044A136068
:100F2C0000F074FC002008BD6FF01500FBE700BF5B
:100F3C00AC00002010B5044C237813B9034802F020
:100F4C0011FB0123237010BDF00900205C0100206F
:100F5C0010B504460B4803F0EDFE5CB1BFF35B8F9C
:100F6C00094B53E8001F013943E80012002AF8D15D
:100F7C00BFF35B8F054804F086FDBDE810400448C4
:100F8C0002F0F0BA880800208C080020C806002067
:100F9C005C0100200020BFF35B8F0146044B53E83B
:100FAC00000F43E80012002AF9D1BFF35B8F7047A2
:100FBC008808002070B5FFF7EDFF0546074C084E7A
:100FCC00B44200D370BD63685B792BB123685B6856
:100FDC0013B12946204698471034F1E7E05F00082A
:100FEC00F05F000810B5044C0449204603F028FDBE
:100FFC00034B1C6010BD00BF20010020F05F0008F7
:10100C008008002000230D4A10B513700C4A4FF4D1
:10101C007A7113600B4A0C481360FFF77BFFFFF7E4
:10102C00E1FF0A4B0A4918468B4200D310BD1A1A2D
:10103C005C681211013222711033F5E7F1090020BE
:10104C00880800208C0800205B4D0008E05F000839
:10105C00F05F0008014600220023014803F011BD97
:10106C0020010020014803F0AABD00BF2001002090
:10107C00024B0146186803F0F6BD00BF8008002043
:10108C00014803F02BBE00BF2001002070B5264B99
:10109C001878002846D0FFF7E5FF054600283ED11A
:1010AC00224B234C1B68002B12DD04F0DEFC0A22C1
:1010BC000023FFF715F8D4E90032C01A40F2E933E7
:1010CC0061EB0201984271F1000101D3FFF772FF4D
:1010DC00D4E9003213F57A7342F10002C4E900320C
:1010EC00BDE87040FFF7CCBF63685B7923B1236820
:1010FC00294620461B6898471034B442F4D328463E
:10110C00FFF7B6FFBFF35B8F0A4B53E8001F0139A3
:10111C0043E80012002AF8D1BFF35B8FC0E7064CFE
:10112C00064EEAE770BD00BFF009002088080020D9
:10113C00C00600208C080020E05F0008F05F00086B
:10114C0070B50D4D297861B90120FFF793FE0B4C5A
:10115C000B4EB44206D3FFF799FF0028FBD10123B5
:10116C002B7070BD63685B791BB1236820469B684C
:10117C0098471034EDE700BFF1090020E05F00084C
:10118C00F05F000800212DE9F0470846FFF772FEDA
:10119C00044658B34FF4FA784FF0000904F010FDF0
:1011AC001B4B1C4A1B58136033B11B4B1B68092B80
:1011BC0002DD1A4802F0D6F90025194FDFF85CA0C1
:1011CC0044B12046FFF7F0FD044618B94FF0FF3844
:1011DC004FF0FF39FFF75AFF064628B9B5B942461A
:1011EC004B46504602F0F2F93546E9E74FF0FF382E
:1011FC004FF0FF39D2E72B689B691BB100222846C0
:10120C00114698471035BD42F5D3E8E7054DFAE78E
:10121C0008000000840800208C0800205C010020DD
:10122C00F05F0008E05F000813B5184803F082FD7A
:10123C00174B1B7873B1EFF31184102383F31288CF
:10124C00BFF36F8FFFF722FF84F31188BFF36F8F0B
:10125C0002B010BD0F4B1B68002BF9D050B9002207
:10126C0000230D48CDE9002342F21072002302F056
:10127C003FFFEDE70928EBD1074804F004FC0748D1
:10128C0002B0BDE8104002F06DB900BF8C08002020
:10129C00F109002084080020C80600205C01002011
:1012AC0010B5064B04461B6898472146A0600448BD
:1012BC0003F066FCBDE81040FFF7B6BFAC000020A1
:1012CC0020010020044A054B9B1AB1EBD30F34BF0D
:1012DC0052F8310000207047905F0008E05F000872
:1012EC002DE9F04F8FB0C1F34A2804AF0D4691465B
:1012FC00B8607B600C0DB8F1000F63D000264FF086
:10130C00040B4FF00A0A07F11403C7F80C80C7E965
:10131C0007667E620193CDF808B0CDF800A007F106
:10132C001C0332464846F968FFF714FBB0F5006F12
:10133C0003461CD36C468AB0D9F8041004AB26487B
:10134C001A46C3E9050140F2FF71D9614FF40071EF
:10135C001984224B42F8103F4FF412513346204867
:10136C00FFF7BEFFA5462C37BD46BDE8F08FC0F396
:10137C000A0804F11700184420F0070080083B60AD
:10138C00FFF768FE68F35325044690B13B6800F103
:10139C001001C7E9083607F11403F961CDE900A380
:1013AC00CDF808B048460F4AF96807F11C03FFF75F
:1013BC00D1FA68F353252A4620467B68B96803F0B6
:1013CC0001FDD0E704F1170020F007008008FFF7BB
:1013DC0041FE0446EDE700BF7A64000804000001FA
:1013EC00A85F0008A34D00082DE9F04F87B0044614
:1013FC00DDE9105ADDE91279934698460391BFB1A5
:10140C003B46524610210020CDF80090CDF81490A8
:10141C00FFF7CEF8B0F5006F06460AD340F2FF7323
:10142C000221174A174807B0BDE8F04F03F023BD5F
:10143C003E4605F11700304420F007008008FFF706
:10144C0009FE04F007040BF0070BE40044EA8B14CC
:10145C0044EA462444EA0554054640B13FB13B46B4
:10146C0052463146CDF800901030FFF7A1F84346B4
:10147C0022462846039907B0BDE8F04F03F0A2BC02
:10148C00B9640008A85F0008406820B1034BC01A7B
:10149C0040F3CF0070474FF0FF307047905F00086B
:1014AC000EB403B503AB53F8042B01460448019367
:1014BC0000F08AFD02B05DF804EB03B0704700BF8A
:1014CC00E34E0008CA0605D48B064CBF02490349FB
:1014DC00FFF7E6BF704700BFF2640008F164000834
:1014EC002DE9F04F89B09B46149B9DF84CA00693B8
:1014FC00159B04460593169B0D469046179E049328
:10150C00BAF1000F00F09D8006F48073079303F08E
:10151C0037FC06F00209024600283ED020469149CD
:10152C00FFF7BEFF0746B9F1000F08D016F0440FC5
:10153C0035D12A4620468C49FFF7B2FF074406F006
:10154C00010353B1894B204653F82A20884B894913
:10155C00002A08BF1A46FFF7A3FF06F48073002B7E
:10156C0049D006F00803002B63D1B8F1000F66D008
:10157C00424620468049FFF793FF0546069B3D44B3
:10158C00002B6DD1049B002B73D1F30700F1E48089
:10159C0031462046FFF796FFD8E00746C3E7774B66
:1015AC0018680028CAD0764B4FF47A791B684FF034
:1015BC003C0CB5FBF3F5B5FBF0F14FF4616300FBAC
:1015CC00115509FB05F5B1FBF3F2B5FBF0FE03FB7E
:1015DC00121100FB1E55B1FBFCF309FB05F5B5FB25
:1015EC00F0F50CFB131120460091CDE901E565499E
:1015FC00FFF756FFA2E706F00803EBB1624B20465B
:10160C0053F82A206149FFF74BFF0546B8F1000F4C
:10161C0005D0424620465849FFF742FF0544BBF12E
:10162C00000FABD05A4620465949FFF739FF054405
:10163C00A4E74FF0000BE1E706F00805E6E74546A6
:10164C009CE7BBF1010F069B06D1002B64D1049BD8
:10165C00002B7BD000250CE0002BF8D04D485CE033
:10166C004D48069B22464D4903F080F8049B002B05
:10167C0068D0DFF82C81DFF82C91049F3146102FB5
:10168C00204628BF10274FF0000BFFF71BFF5D45CE
:10169C0045DC059B494620461A78FFF701FF4FF0C1
:1016AC00010B1BF0070F03D141462046FFF7F8FE54
:1016BC005F453BD9059B4946204613F80B20FFF7A5
:1016CC00EFFE0BF1010BBBF1100FEAD14FF0000B49
:1016DC0020463549FFF7E4FE5A46059B20469A5CA6
:1016EC00A2F120015F2928BF2E223049FFF7D8FE36
:1016FC000BF1010BBBF1100F1DD01BF0070F03D129
:10170C0041462046FFF7CCFE5F455A46E5D8414698
:10171C002046FFF7C5FEEBE71F485546A1E74146BB
:10172C002046FFF7BDFE0BF1010BB0E72046204928
:10173C00FFF7B6FEC5E7059B3B440593049BDB1BFB
:10174C0004939AD1BAF1000F7FF41FAF204609B071
:10175C00BDE8F04F03F0B3BB2046054A0549FFF73F
:10176C009FFE15E7F9640008FD640008146000088A
:10177C00F46400082265000825650008980800201C
:10178C0094080020066500082860000829650008F8
:10179C002F650008194F0008E34E0008D51F0008FC
:1017AC003C650008346500083E650008406500088B
:1017BC003A65000842F20F7373B58B4228BF0B4693
:1017CC0005680446052168460D4A02F0CFFC064622
:1017DC00636828460B225B680A4903F062FB636866
:1017EC003246694628465B6803F05BFB63681B2244
:1017FC0028465B68044903F054FB02B070BD00BF7F
:10180C00506600085F65000843650008002101234D
:10181C00064A904206D8064A01B901231360054BCB
:10182C0018607047012140085B00F2E740420F004E
:10183C009408002098080020F8B50D460446064F81
:10184C004618B44201D12846F8BD14F8011BBB68F8
:10185C0001485B689847F4E7685D000808B50348E1
:10186C00034A0021121A03F0CDFB08BD70010020C1
:10187C00F8090020074808B5074A0849121A03F06E
:10188C00C3FBBDE808400648064A0749121A03F094
:10189C00BBBB00BF000000206C010020286E0008BC
:1018AC000000002000000020286E00082DE9F04701
:1018BC0006460C4600AF002935D006C9E9468AB069
:1018CC006D46A3684FF0050AA8461F48C5E90723D3
:1018DC00C5E9050148F810AF002342464FF42151E9
:1018EC001A48FFF7FDFCD4E90312CD466369AD46F7
:1018FC001748C5E90723C5E90501C5F810A0002361
:10190C0042464FF421511148FFF7EAFCCD46E369FA
:10191C000121104A0D4803F0AEFAA36901210E4AC9
:10192C000A4803F0A8FA012E07D1EFF305830B4AFE
:10193C0031460648103B03F09EFA2146304601F032
:10194C008DFCBD46BDE8F087A5650008C05F0008AA
:10195C00D46500080366000812660008406600089B
:10196C0030BFFFF7FDBF00BF2DE9F04105460B4E20
:10197C00DFF82C80324606EB0807CC1B20460949C1
:10198C0004F09DF8A01942460021083C04F0A5F88B
:10199C006C6607F10800BDE8F08100BF0000000094
:1019AC0004000000F05F0008054B5A699B689A42DE
:1019BC001FBF044A536843F080535360704700BF05
:1019CC00C009002000ED00E070B5224C06460D4623
:1019DC002148224903F025FBA36AD90638D51E48B5
:1019EC001F4903F01EFB1120A36A1A0704D51A48DD
:1019FC001C4903F016FB1220164CA36A9B0712D548
:101A0C001949154803F00DFB636BA26A110609D541
:101A1C000121164A104803F02EFA1EB1A36A23F0D6
:101A2C008003A36213200B4CA36ADA0704D50A487F
:101A3C000F4903F0F6FA1420A36A064ADB0658BFD6
:101A4C00A36A936A43F0FF03936200232B7070BD6B
:101A5C001020C9E700ED00E0C05F000853660008E5
:101A6C00696600089C660008AF660008C766000837
:101A7C00DD66000810B5204C2049214803F0D1FA4E
:101A8C00A36A990136D51E481E4903F0CAFA1E20D6
:101A9C00A36ADA0104D51A481B4903F0C2FA1F20C5
:101AAC00154CA36A1B0304D51548184903F0B9FA61
:101ABC002120A36A590304D51148154903F0B1FA42
:101ACC0022200D4CA36A9A0304D50D48114903F04A
:101ADC00A8FA2320A36ADB0304D509480E4903F0B6
:101AEC00A0FA2420044A936A6FEA03436FEA134373
:101AFC00936210BD1D20CBE700ED00E0FC660008F2
:101B0C00C05F0008146700082767000841670008D9
:101B1C005F670008846700089E67000870B5244C56
:101B2C0006460D462348244903F07BFAA36AD904E0
:101B3C003CD52048214903F074FA1720A36A1A05F2
:101B4C0004D51C481E4903F06CFA1820184CA36AE3
:101B5C009B0512D51B49174803F063FAA36BA26AC5
:101B6C00110409D50121184A124803F084F91EB159
:101B7C00A36A23F40043A36219200D4CA36A5A05EF
:101B8C0004D50C48114903F04CFA1A20A36ADB0562
:101B9C0004D508480E4903F044FA1B20044A936A02
:101BAC0043F47F43936200232B7070BD1620C5E76E
:101BBC0000ED00E0C05F0008C9670008DF6700089F
:101BCC009C660008F0670008096800081E68000899
:101BDC00396800082DE9F0418AB0654B0446D3F80A
:101BEC000480002600AFC8F3080586F31188BFF304
:101BFC006F8F02F07F43B3F17F4F07D102F00C03DC
:101C0C00082B12D15B495C4803F00BFA00263446D2
:101C1C000023FB71EB1E092B00F28980DFE803F037
:101C2C000A7F827B87878787878510074CBF0C4686
:101C3C000126EDE75149504803F0F3F900234C4DD0
:101C4C00FB71EB6A9A0705D54D494B4803F0E9F94E
:101C5C00002331E0EB6A002B01DA4A49F5E7EB6A25
:101C6C005B00F5D54849444803F0DBF96B69A26980
:101C7C0043F480736B61BFF34F8FBFF36F8F6B694E
:101C8C0032F8022C23F480736B61BFF34F8FBFF3D8
:101C9C006F8F4DF602739A4207D0AB6ADBB26BB30F
:101CAC000120F91DFFF790FE37E023680121374A28
:101CBC00314803F0E0F82368FA79DAB907F108053E
:101CCC0004F1200C2A4620686168083403C264457C
:101CDC001546F7D17A6A002E45D0C2F3080121B916
:101CEC006FEA52226FEA42227A62184607F1080123
:101CFC00FFF7DCFD2837BD46BDE8F081AB6A13F475
:101D0C007F4F04D00120F91DFFF708FF05E0AB6AF7
:101D1C00B3F5803F9CD3FFF7ADFE0346CCE7002024
:101D2C00F91DBFE70020F91DEEE719498DE7194AA7
:101D3C0018F4F87FE8468AB0174B18BF13466A466A
:101D4C001649103DC2E905134FF400731384144B6C
:101D5C00D56142F8103F00234FF411510648FFF7AC
:101D6C00BFFAC54674E722F4FF7222F00102BBE70A
:101D7C0000ED00E07F680008C05F0008AA6800085A
:101D8C00C1680008E2680008F06800080F690008E4
:101D9C002B69000866680008516800084F69000844
:101DAC0004000001044B5A6942F010025A615A694E
:101DBC0022F008025A61704700ED00E0EFF3088052
:101DCC00EFF3098101B57246FFF704FF01BD00BFB7
:101DDC000A4880F30888102080F3118808484FF4D3
:101DEC000061401880F30988EFF314800221084346
:101DFC0080F31488BFF36F8F03F01BF9F8210020D8
:101E0C00F8140020084B9B6883420BD1EFF3058339
:101E1C0043B1064B5A6842F080525A605A6A22F417
:101E2C0000425A6201F082BEC009002000ED00E0C1
:101E3C0011498A684FF030001044EFF3098C80E8A8
:101E4C00F01F102080F31288BFF36F8F0B4F4FF0F1
:101E5C0000664A698A603E60506E094C2060906E44
:101E6C000023936680F3118802F1300090E8F01F94
:101E7C008CF3098870470000C009002004ED00E0D5
:101E8C00C00800201EF0040F0CBFEFF30880EFF326
:101E9C000980816911F8021C0229FFD001B5724634
:101EAC0003F0B4F801BD00BF40B2002807DB0123EA
:101EBC004109034A00F01F00834042F8213070476B
:101ECC0000E100E040B2002801F10101ACBF00F1DB
:101EDC006040064B4FEA0111C9B2ABBF00F561403F
:101EEC0000F00F0080F800131954704714ED00E057
:101EFC00054B064A23F0404323F07F039360BFF366
:101F0C004F8FBFF36F8F70470000000800ED00E0AB
:101F1C0042F8203C009B0B4942F81C3C019B21F0F1
:101F2C00010142F8183C029B42F8081C42F8143C90
:101F3C004FF0807342F8043C0023203A026583661C
:101F4C00704700BF3D0D000800B50B4B154698605F
:101F5C00426E0A4B0E461A602C4686F30988002006
:101F6C00034B98472046002100220023014C2047B8
:101F7C005B5000083D0D0008C0090020C00800207F
:101F8C001022014B1A61704700ED00E00023102174
:101F9C000348C21801332B2B82F80013F9D1704778
:101FAC0000E100E008B5EFF30583064A103B02EBB5
:101FBC00C30152F8330049688847BDE80840FFF771
:101FCC00F3BC00BFC85D0008F0B587B007460E46ED
:101FDC0014460021102268461D4603F07EFD0223A4
:101FEC008DF80230054B2A4621466846CDE9047629
:101FFC00019302F0E5F807B0F0BD00BF8350000874
:10200C0008B5024B1B689847002008BDC408002087
:10201C00034B044A1860937843F0020393707047A3
:10202C00C4080020B800002008B50649064821F075
:10203C000701C1F1005202F5A04202F05AFB002048
:10204C0008BD00BFFF210020C8080020044B184425
:10205C0000230133994200F8012BFADC704700BFD2
:10206C00F80000202DE9F041054600264FF001084C
:10207C000E4F6B78F4B2A34201D8BDE8F0812B78F7
:10208C001C44204600F0A4F868B1204600F0BCF8CF
:10209C0057F834303BB107EBC40204F01F0451680D
:1020AC0008FA04F098470136E3E700BFD408002093
:1020BC00034660B1B0FA80F2C2F11F02D2B20549F8
:1020CC008856054A11680B431360FFF7EDBEFF22DB
:1020DC00F5E700BFF800002000040140024A136835
:1020EC0023EA00031360704700040140032921D840
:1020FC00DFE801F0020C10190F4B9A6822EA00027B
:10210C009A60DA6822EA0002DA6070470A4B9A6831
:10211C000243F5E7084BDA680243DA609A6822EA70
:10212C0000029A607047044B9A6802439A60DA681E
:10213C001043D860704700BF0004014030B5B0B107
:10214C00B0FA80F3C3F11F03DBB20B4850F83340F5
:10215C008C4204D100EBC3056D68954205D044B99F
:10216C0040F8331000EBC3004260002030BDFF2369
:10217C00EBE76FF00F00F9E7D408002060B1B0FA7C
:10218C0080F3C3F11F03DBB20021044A42F8331081
:10219C0002EBC30251607047FF23F5E7D40800201F
:1021AC000F2300F0030204329200934043EA9000A4
:1021BC00C3B2064A023352F82320030C93FAA3F35A
:1021CC00B3FA83F302EA1040D84070470000014094
:1021DC00012100F01F021F2808B501FA02F2034684
:1021EC0005D90648064A02F046FE002008BD054BFC
:1021FC005B699A430CBF01200020F7E7A05F000841
:10220C007069000800040140012100F01F021F2822
:10221C0008B501FA02F2034606D90548054A02F050
:10222C002AFE6FF0150008BD034B00205A61FAE737
:10223C00A05F00087069000800040140F8B50C7933
:10224C000A4614F0200106D03649374802F094FFB4
:10225C006FF01500F8BD1378092B01D03349F4E762
:10226C005378042B01D03249EFE7456804F01F0383
:10227C0054882868ACB143F6FF7294421BD02D4FA2
:10228C0005F1180636F8022F3A4392B2944209D05F
:10229C0001310829F6D12849234802F06DFF27495E
:1022AC00D3E7214695F92A203AB1013AD2B2012A54
:1022BC0036D92349F0E70721F4E703EB4302092B56
:1022CC008ABF1E3A43EA025243EA02524FF00073AD
:1022DC0093FAA3F3B3FA83F398BF42F0007202F0BF
:1022EC000074DC404FF0F87393FAA3F3B3FA83F362
:1022FC0007260C3002F0F87250F8245022FA03F33F
:10230C0006FA03F325EA03054FF0F87393FAA3F3E7
:10231C00B3FA83F3DA4001FA02F32B4340F824308A
:10232C00002097E7B0690008905F0008E769000893
:10233C00FC69000800C0FFFF166A00086F6A0008FD
:10234C00396A000813B5436804461B689A68D107BC
:10235C005EBF9A6842F001029A6043680F48996820
:10236C008368DB68A3B90E490E4802F005FF019B98
:10237C001BB90D490B4802F0FFFE63681B689A6895
:10238C0042F004029A609A685207FCD402B010BD65
:10239C0001AA98470028EADAE5E700BF685C000864
:1023AC00856A0008905F00089F6A00082DE9F04FCD
:1023BC00036989B0403306460D4602934FF0FF3255
:1023CC004FF0FF33029801F001F9736834691F680C
:1023DC00AB68C4F89430D5F804804046C4F8A080AB
:1023EC00FDF7A0FE002284F8A40084F8A520B8F123
:1023FC00000F04D18F49904802F0BEFE07E0102870
:10240C000EDD102301218D4A8B4802F034FD6FF054
:10241C001504029801F0A6F8204609B0BDE8F08F2B
:10242C00012801DD8649E6E77368196893F92DC028
:10243C002C33624502DB11D18249DCE753F8040FDF
:10244C0095F810E0BEEBD04F35D1C3B2FF2BC0F3E3
:10245C000422C0F3423EC0F3024C2ED173684FF0FD
:10246C00000919680393336901F12C0BD3F8A0E030
:10247C004FF4407393FAA3F30593B3FA83F30793E2
:10248C00BEF1000F36D14B6843F480734B6094F867
:10249C00A4202B68520013B19B8903FB0222EB682A
:1024AC0093426ED2012100926348674A02F0EDFC20
:1024BC006FF00B04ADE70132BBE7C858D0400EEA11
:1024CC0000008445CAD08868C0070BD471680EFA26
:1024DC0002FE08680CFA02F2C15821EA0E010A4306
:1024EC00C250BBE7886820F0010088608868C0078C
:1024FC00FCD4EBE79EFAAEF2B2FA82F202EB4203A4
:10250C00092A95BF42EA03531E3B43F0007342EA8B
:10251C0003530493039B93F92B0001282AD14B4BB3
:10252C005FFA89FA53F82A00059B00F44078002BD7
:10253C00079B0CBF4FF0200C9C4628FA0CF85BF85C
:10254C00283000F01F0C06931F2303FA0CF0069B97
:10255C0023EA0000049B03F01F0303FA0CF3184357
:10256C004BF828003A48CB6A50F82A0023F4700341
:10257C000343CB62012303FA02F22EEA020E9944C2
:10258C007EE76B7C33B133492B4802F0F5FD6FF0DD
:10259C0085043EE7AB7C13B13046FFF7D3FEBB6836
:1025AC0004F16406DB075EBFBB6843F00103BB604C
:1025BC007B6843F020037B602F460FCF0FC63B6830
:1025CC003360002626662B687BB30FCB04F17805AD
:1025DC0085E80F006566A4F8886030B3BFF35B8FA5
:1025EC0054E8003F44E80062002AF9D1BFF35B8F46
:1025FC00A06F642263304FF0000346F10001FDF739
:10260C006FFD0022CDE90001002304F1080001F068
:10261C006FFD4FF0FF324FF0FF3304F1500000F02C
:10262C00D5FF00B12066246EF3E6204602F0A8FD2B
:10263C00EFE700BFB36A0008905F0008C86A0008A3
:10264C00F16A0008306B0008436B00080C6100084D
:10265C00CC600008686B000838B52C4B1A689207E0
:10266C0045D52B4CDA6CD4F894302546991CC4F81B
:10267C0094101A8094F8A53094F8A4200133DBB29E
:10268C009A4284F8A53032D1002384F8A530636EC9
:10269C009BB3E36FB4F888203BB11E4804F164018E
:1026AC00984701280BD0022822D0B4F88830B4F80F
:1026BC0084209A421CD90133A4F8883003E0D4F862
:1026CC009830C4F89430A36F23B9BDE83840104853
:1026DC0002F056BDBFF35B8F55E8003F5A1E45E82C
:1026EC0000210029F8D1012BBFF35B8FEDDC38BD45
:1026FC00A36F13B1084803F0C6F94FF6FF73A4F8A3
:10270C00A6300648BDE8384000F02CBF002401403C
:10271C0000000020A85D00080800002050000020E8
:10272C002DE9F341D0F8048005460669D8F800700D
:10273C00234C204603F068F848B92249224802F09D
:10274C001BFD6FF01204204602B0BDE8F0814FF67D
:10275C00FF73C6F89050A6F8A6306B689968A3680A
:10276C001B680BB1204698470021D8F8140001AA29
:10277C0002F03CFF041E07DB019B0022197918684C
:10278C0000F096F9041E08DAA31C06D0012123469A
:10279C000E4A0D4802F06FFBD5E7D8F8043003B1B0
:1027AC0098472846FFF7CEFDBB6843F46023BB6017
:1027BC00B36C1BB906F1400000F0D4FE0024C2E754
:1027CC00685C0008836B0008905F0008A26B00082F
:1027DC0038B51E4B0D4618680B881446C3F30B0313
:1027EC00013B1B2B2BD8DFE803F010210E211F2AF5
:1027FC001910102A2A2A2A2A2A2A2A2A2A102A2A8C
:10280C002A102A2A2A1749F6404020602B68B3F573
:10281C00805F0DD2002038BD4008F6E702F05FFD66
:10282C0080B102F05CFDF0E70948EEE70020ECE730
:10283C00C3F313330133B0FBF3F02060EAE76FF01E
:10284C008500E8E76FF00400E5E700BFE800002032
:10285C0000127A00F8B53D4F02F043FD384602F005
:10286C003DFD00F09FFC3A4C3A4A63681578C3F37F
:10287C000313D35C47FA05F520FA03F6AE4202D2F5
:10288C00284600F0B5FC236843F4802323602368BA
:10289C0043F48033236023689A03FCD5636A43F0C6
:1028AC0001036362636A9B07FCD5636803F00C0346
:1028BC00082B15D12368980706D4236843F001032D
:1028CC00236023689907FCD5636823F003036360D6
:1028DC00636813F00C0FFBD1636823F0F0036360A3
:1028EC00236823F08073236023689A01FCD400F0E2
:1028FC0035F8236843F08073236023689B01FCD573
:10290C00636823F0F0036360636823F0030343F010
:10291C0002036360636803F00C03082BFAD1AE4228
:10292C0002D3284600F064FC0B4B00201F60636848
:10293C0023F4E06343F480636360636823F46053BF
:10294C006360636823F440436360F8BD00A24A04EB
:10295C0000100240E66C0008E8000020054A5368AD
:10296C0023F47C1343F4E8135360536823F480037B
:10297C00536070470010024008B5074802F044FF4E
:10298C0038B10648FFF744FB0448FEF7CBF90020AA
:10299C0008BD6FF01200FBE7685D0008AD29000868
:1029AC000A2838B50446074D04D1AB680D212846DA
:1029BC005B689847AB6803485B68E1B29847204670
:1029CC0038BD00BF685D00082DE9F843D0F80480DD
:1029DC001746D0F81090D8F808000D461E4602F0A5
:1029EC009EFBB7F5001F044616D12846D8F80840C0
:1029FC00FFF7D6FB84420CD1294602F090FB04462B
:102A0C00FFF76CFB2046FFF7B9FB00212046FFF7D0
:102A1C006DFB0020BDE8F883B7F5800F20D0B6F130
:102A2C00806F19D0B6F1C06F18D0B6F1007F1AD1F3
:102A3C0002264A4620460F49FFF780FBB0B92846CC
:102A4C00D8F8081002F070FB20463146FFF74EFB19
:102A5C002046FFF72DFBDCE70126EAE70326E8E733
:102A6C006FF08500D6E76FF01500D3E76FF00F001D
:102A7C00D0E700BF0754000838B503690446586016
:102A8C000A4D284602F0C0FE60B1AB6861681B6855
:102A9C000C3123B12846984700EAE07038BD6FF03E
:102AAC005700F9E76FF01200F8E700BF685C000808
:102ABC0000222DE9F347134604468A4211D22BB962
:102ACC0054F83230C3F389230132F6E754F832005C
:102ADC00C0F389200028F7D098425ED10132914290
:102AEC00F4D8E3B12E4A13F0010F906940F00100C5
:102AFC00906192694FEA132002F001020192019A4F
:102B0C00C3F3440200FA02F0264A09BF5368D369A2
:102B1C00034343F0E06316BF03435360D361224F7A
:102B2C0004EBC106A64201D1002011E0D4E9002536
:102B3C0012F003090FD145F04105C2F3870AC2F325
:102B4C00831257F82280B8F1000F15D16FF01200E4
:102B5C0002B0BDE8F087B9F1020FEED0B9F1010F68
:102B6C0007D115F4C07F0CBF45F0020545F00405F4
:102B7C00E3E745F00105E0E7404602F045FE00289A
:102B8C00E4D04B462A4640460AF00F0102F019FDEC
:102B9C00002804F10804C5DADAE76FF01500D7E76E
:102BAC000010024000000140B06100082DE9F04126
:102BBC0082B0436806460C461D68026900AF0029C6
:102BCC003ED01068D9688368DB6873B13A1D9847AA
:102BDC00B0F100080CDA01211D4A1E4802F042F93E
:102BEC0040460837BD46BDE8F0816FF05708F2E764
:102BFC0019237A6864215A43A300B2FBF3F2B2FBA7
:102C0C00F1F001FB10231B013233B3FBF1F303EBA7
:102C1C0000130F2B17D86D468AB033686A460E49DD
:102C2C00D461C2E905134FF4007313840B4B42F8C3
:102C3C00103F00234FF411510648FEF751FBAD46EF
:102C4C006FF01508CCE79BB24FF00008AB60C7E7FC
:102C5C003B6C0008D85F0008696C00080400000198
:102C6C00F8B50C46036941685D682379012B34D0B3
:102C7C009A1E56425641B6026279022A96BF374FC7
:102C8C004FF4005C37F812C0A279042A28D0003B1C
:102C9C0018BF01231B03E279012A0A680CBF4FF409
:102CAC0040770027A542D1681DD121F4B0513143A2
:102CBC000B43D360136923F4405343EA0C031361B1
:102CCC0043681A68536923F440733B435361296882
:102CDC00FFF76CFF00EAE070F8BD4FF4C066CBE77D
:102CEC004FF48053D7E701F4C0618E421FBFD16807
:102CFC0021F4C0613143D160426811680A6902F461
:102D0C00405294451FBF0A6922F4405242EA0C0219
:102D1C000A6142681168CA6802F4805293421FBF6C
:102D2C00CA6822F480521343CB6043681A68536913
:102D3C0003F440739F421FBF536923F440733B431A
:102D4C00536121682B68994205D0FFF72FFF0028AB
:102D5C00C2DB23682B600020BEE700BFEC620008DA
:102D6C00F7B50546466804693548206002F04CFD0D
:102D7C0048B9344A0121344802F074F86FF0120457
:102D8C00204603B0F0BD2068F16883681B683BB92E
:102D9C0001212E4A2C4802F065F86FF05704EFE73A
:102DAC0098470446E0B90021306A01AA02F01EFCE3
:102DBC00041EE5DB019B002219791868FFF778FEE9
:102DCC00041EDDDB6E682B6934685F68E36823F4EE
:102DDC000053E360706802F017FD48B91C4AC9E75C
:102DEC0001211A4A184802F03DF8002CC8DBDAE73A
:102DFC00D6E901018368DB6803B1984704F10C0341
:102E0C0053E8003F43F00C0304F10C0141E800329D
:102E1C00002AF3D139462846FFF722FF00280BDBA6
:102E2C00337D1BB1636943F008036361E36843F4CA
:102E3C000053E3600024A3E76FF01504A0E700BF84
:102E4C00685C0008836B0008D85F0008806C000881
:102E5C00A06C0008F8B50C464368A6791D68036998
:102E6C005F680B794979012B35D102294AD9042E97
:102E7C0045D04FF4C0624FF480534FF0030C8C4597
:102E8C003DD1002B77D0002A14BF03220422B2427A
:102E9C0035D1E37963B1012B31D1394B9D4207D048
:102EAC00A3F574439D4203D003F580639D4226D164
:102EBC00EB68214623F40053EB60FFF7D1FE0028AA
:102ECC001DDBEB6843F40053EB6094E8030087E8E8
:102EDC000300002015E0022B06D102291FD9042E75
:102EEC000DD04FF48062C6E702290A461FD9042E82
:102EFC0002D123B90022BEE713BB0329C7D06FF060
:102F0C008500F8BD1F4A042E32F811C0F7D04FF4DB
:102F1C00C062033B012BF2D94FF4805319E0194ADC
:102F2C00042E32F811C0EAD04FF48062F1E7154A52
:102F3C00042E32F811C009D1002BE0D11A46EBE770
:102F4C00033B012BDBD9D5E70022E2E7002BFBD1B9
:102F5C001A46BCF5805F08D0BCF5405F08D0BCF1C8
:102F6C00000F8AD14FF0010C89E74FF0000C86E777
:102F7C004FF0020C83E7002A14BF0222032286E7DB
:102F8C0000380140EC6200084FF0E02310B50F4907
:102F9C009C691A6908689B690D4902F4803234B93E
:102FAC0093B903464AB90A681044C01A10BD002BE5
:102FBC0008BF03460AB9A342F5D90A6802440A605D
:102FCC004FF0E0221269EEE70446F3E7BC0900205B
:102FDC00B809002010220A4B002083F823204FF45C
:102FEC00E152084B1A60084B41F61F4218604FF033
:102FFC00E0235A6198611A6942F007021A6170471E
:10300C0000ED00E0BC090020B8090020684620F063
:10301C0007018D4619B5FFF7B7FF1149114B086829
:10302C00D3E90042001942F10002C3E90002002377
:10303C000B604FF4E1530C4AD2E90041001BB0FB8A
:10304C00F3F043431B1941F10001C2E9003100F0D8
:10305C0051FFFEF7A9FCBDE819408546704700BF3B
:10306C00B809002008070020000700202DE9F041D6
:10307C00DFF8E08099B1421C0BD14FF0E0221369CC
:10308C0023F0010313614FF07F43C8F80030BDE813
:10309C00F081D8F80060012807DC00270BE0431C06
:1030AC00D8F80060F7D140F6191040F61A13984280
:1030BC00A8BF1846471EEFF31185102383F312881F
:1030CC00BFF36F8FFFF760FF4FF0E023224C99693D
:1030DC00D4E9002380184FF0000243F10003C4E947
:1030EC0000031E4B1A601E4B1A68831A2ED44FF421
:1030FC00E15C0CFB073303F5E0531F33B3FBFCF728
:10310C00131A0CFB0733B3F5806F38BF4FF4806391
:10311C00144A934228BF13464FF0E022C8F80030FF
:10312C00013B90695361002381429361A1EB000341
:10313C0038BF9B19D4E900125B1842F10002C4E9B4
:10314C00003285F31188BFF36F8FA0E74FF48063D3
:10315C00E2E700BFBC09002008070020B8090020E6
:10316C000007002020DFFF0038B5EFF31185102396
:10317C0083F31288BFF36F8F084B1C68084B1B68D6
:10318C00E41AFFF701FF85F31188BFF36F8F4FF43B
:10319C00E1532044B0FBF3F038BD00BF080700201A
:1031AC00000700200D4A536803F00C01082912D1C6
:1031BC000B48C3F38341DB03405C09D55368094AD0
:1031CC00C3F340435043084AD35CB0FBF3F0704761
:1031DC00064B584370470348704700BF001002402D
:1031EC00F86C000800127A00F66C000800093D002B
:1031FC00D8B10F4B984216D80E4B984294BF002072
:10320C0001200D4A136823F007030343136013686E
:10321C0003F0070398421CBF136803F00703C01A9E
:10322C0018BF012070470220EBE70120704700BF58
:10323C00006CDC0200366E010020024010B5044622
:10324C00FDF77EFF03480121034A01F00BFE2046E7
:10325C0002F0E5FAC05F0008086D00082DE9F8439C
:10326C0004460D4600AFEFF31188102383F3128848
:10327C00BFF36F8F0428294A98BF294BE9468AB0BF
:10328C009668117C98BF53F820306A4688BF254B4E
:10329C00C2E9073140F2013323489384234BC2E93E
:1032AC00050442F8103F00234FF431512048FEF73B
:1032BC0017F8CD4645B1EB69C3F3080323B10121DF
:1032CC001C4A1B4801F0CEFD2EB1304602F0CFFA5D
:1032DC0008B1037803B91848E9468AB06A46174B17
:1032EC00D061C2E9053640F201331384144B42F825
:1032FC00103F00234FF411510D48FDF7F1FF294603
:10330C00CD462046FFF79AFF88F31188BFF36F8FE5
:10331C003046FEF777FDBD46BDE8F883C0090020B6
:10332C00B4620008176D00082D6D0008050000013F
:10333C00C05F0008556D0008256D0008766D00080B
:10334C000400000138B50A4B53F82040013053F803
:10335C002050A54200D838BD606830B1037FDB0730
:10336C0001D402F039FA0834F3E723689847FAE7F6
:10337C00C8620008012270B5294B032086B01A7070
:10338C00FFF7E0FF00F0ECFE0420FFF7DBFF254C1D
:10339C00254D2646AE4204F1300410D300F0CCFA91
:1033AC00204C224EAC4226D300F0DAFAFDF798F806
:1033BC001F4A137B23F00103137306B070BD54F83E
:1033CC000C3C059354F8103C049354F8143C0393B0
:1033DC0054F8183C029354F81C3C019354F8203CCC
:1033EC00009354E90A2354E90C0100F015F954F840
:1033FC00303C5E65CDE7D4E90A23B3F1FF3F08BF4B
:10340C00B2F1FF3F05D052EA0301206803D100F06E
:10341C0063FB3034C6E73146183000F0DBFCF8E7CC
:10342C00F3090020205F0008205F00086D59000898
:10343C0080070020702370B5134E012203FB006639
:10344C00002386B0CDE904230F220193CDE902328B
:10345C0014230E4D0E4903FB0055044601EB0021CD
:10346C004FF4807230460B4B009500F0D5F8737B0F
:10347C002C7423F004037373074B013403EBC42344
:10348C00EE606B6006B070BD10070020C009002014
:10349C00F81C00203B580008F8140020BFB5002091
:1034AC00FFF750FF274B83F30888274C00256369EF
:1034BC00264F43F400736361F02384F82230E577E0
:1034CC0025766576A57684F82050636A43F4E0236C
:1034DC006362FEF767FCFEF753FD4FF0FF33A36208
:1034EC00E362FDF78FFD1A4800F0FAF8FDF74CFC8B
:1034FC000120FFF727FF0220164CFFF723FF00F0F7
:10350C0063FA154B15495C61154B4FF480620593BA
:10351C0001232046CDE90353CDE901553B460095E7
:10352C0000F07AF80646627B204622F004026273B1
:10353C0002F0D9F92846FFF77DFF3A46314620467E
:10354C00FEF702FDF81C002000ED00E081330008BE
:10355C00F007002080070020C0090020F81D002083
:10356C006064000870B5EFF31186102383F31288A2
:10357C00BFF36F8F0468A0421AD0CCB1D4E90032EB
:10358C00002513605A60637BC4E9005523F00203E5
:10359C006373A56004F1180002F03BFA2046E5665F
:1035AC0002F0A1F93146BDE87040074800F09EB921
:1035BC00D0E902329A4218BF0133836086F3118836
:1035CC00BFF36F8F70BD00BFF409002013B5EFF38C
:1035DC001181102484F31288BFF36F8F846844B177
:1035EC00013C846081F31188BFF36F8F002002B01F
:1035FC0010BD52EA030406D181F31188BFF36F8F1B
:10360C006FF00F00F3E7CDE900230246014800F00C
:10361C004BF9ECE7F40900202DE9FF41984600F145
:10362C005803C0E916330E9B002603730423D51DE3
:10363C00437325F007050D9B0D440F4683732946F4
:10364C00C0E906668660C6730446FEF78DF90C9BCE
:10365C00073002930B9B20F0070001930A9B2D1A55
:10366C0000932A46434639462046FEF751FC054B4B
:10367C0066659B6803B11B6E2846236604B0BDE8E3
:10368C00F08100BFC0090020F0B5002587B005957A
:10369C00109DDDE9127604950F9D044603950E9D51
:1036AC0002950D9D01950C9D0095FFF7B5FFB6F1A8
:1036BC00FF3F08BFB7F1FF3F05D056EA070305D11E
:1036CC00204600F009FA204607B0F0BD3A463346D2
:1036DC0004F11800014900F07DFBF4E76D59000876
:1036EC0040F20113838100230366014B98607047FD
:1036FC00C00900206FF00A01084A9368D96608498E
:10370C0098664B6843F080534B60002383F3118819
:10371C00BFF36F8F9368D86E704700BFC00900204D
:10372C0000ED00E070B590F90D20437B002A36DBEC
:10373C00D90634D11B4C63F07F032246437352F8F5
:10374C00183FE169934207D1C0E900210860E061AC
:10375C0011E09942F8D01B68002BF5D090F90E506F
:10376C0093F90E60B542F4D0AE42F2DD5968C0E96F
:10377C00003108605860A569954200D005B9E5682C
:10378C00A3685A7BD20604D1DA897F2A01D9AA69A7
:10379C0032B1AB4202D0284600F096FA656170BD9A
:1037AC006361FCE7C009002038B590F90D20014693
:1037BC00002A437B04DA03F07F03437302F059F8C9
:1037CC000D4D2A4652F8184FAB68944200D004B9FC
:1037DC00EC688B4207D05A7BD20604D1DA897F2A57
:1037EC0001D9A2692AB1A34202D0204600F06CFA9A
:1037FC0023466B6138BD00BFC0090020B3F1FF3F09
:10380C0008BFB2F1FF3F03D00249183000F0E2BA12
:10381C00704700BF6D59000870B590F90D20014636
:10382C00002A437B04DA03F07F03437302F021F890
:10383C001C4C4B7B224663F07F034B7352F8183FB2
:10384C00E069934207D1C1E900200160E16111E018
:10385C009842F8D01B68002BF5D091F90E5093F9D3
:10386C000E60B542F4D0AE42F2DD5868C1E90030CA
:10387C0001605960A569A368954200D005B9E56857
:10388C008B4207D05A7BD20604D1DA897F2A01D920
:10389C00AA692AB1AB4202D0284600F015FA2B4691
:1038AC00636170BDC0090020F8B5DDE906670D4BFA
:1038BC000C46986811460C4A1060EFF311821022E6
:1038CC0082F31288BFF36F8F9D68284601F0E3FFE7
:1038DC00284632463B46FFF791FF2046BDE8F840AC
:1038EC00FFF708BFC0090020E009002049B9EFF339
:1038FC00058030B9054B5A699B689A4201D0FFF795
:10390C00F9BE81F31188BFF36F8F7047C009002097
:10391C00034648B9EFF3058232B9064A51699268F9
:10392C00914201D0FFF7E6BE83F31188BFF36F8F8E
:10393C00704700BFC0090020EFF31181102383F3FF
:10394C001288BFF36F8F054B9A68D37B013BD373FF
:10395C0081F31188BFF36F8F704700BFC00900203F
:10396C0070B5EFF31186102383F31288BFF36F8FBA
:10397C00144DAB68DA7B0132DA732A4652F8184FD1
:10398C00944200D004B9EC685A7BD20604D1DA898F
:10399C007F2A01D9A2692AB1A34202D0204600F0A5
:1039AC0093F923466B6186F31188BFF36F8FEFF3A6
:1039BC001180102383F31288BFF36F8FBDE8704022
:1039CC00FFF7A6BFC0090020024B03F11802C3E9A0
:1039DC0006227047C009002070B5EFF31186102342
:1039EC0083F31288BFF36F8F1B4CA168E0690B68DF
:1039FC00814214BF1A46002249680B605960A368C3
:103A0C00E1692AB9154AC3E900210B60E3610CE0B6
:103A1C0093F90E0092F90E50A84218D0854216DD8B
:103A2C005168C3E900210B605360A5690B4B9D42A3
:103A3C0000D005B9E568A3689D4202D0284600F085
:103A4C0043F965613046BDE87040FFF753BE8A42CA
:103A5C00D8D01268D5E700BFC0090020D8090020D3
:103A6C00F8B550EA010306460C4603D1FFF7B4FF44
:103A7C000020F8BDEFF31187102383F31288BFF3F6
:103A8C006F8F124D124BA8681860FFF78DFEA86857
:103A9C00234632460F49183000F09CF9AA680446B8
:103AAC00537B384643F004035373FFF723FEAB6894
:103ABC00D3E90A23B3F1004F08BF002AD8D101F093
:103ACC00D0FF201A20EAE070D3E700BFC009002025
:103ADC00E00900206D59000838B50446EFF3118554
:103AEC00102383F31288BFF36F8F437B5B070FD5D3
:103AFC00183001F08EFF637B204623F004036373C0
:103B0C00FFF710FE2946BDE838400448FFF7EEBE2B
:103B1C0085F31188BFF36F8F38BD00BFF409002007
:103B2C00014B9868704700BFC00900202DE9F8438D
:103B3C000446077BEFF31185102383F31288BFF340
:103B4C006F8F437B190705D585F31188BFF36F8FF2
:103B5C00BDE8F883D90943F008025DD14273A3682C
:103B6C0013B1204601F08DFE04F1180001F051FF55
:103B7C00A66D04F15808B04511D04FF0000976B18C
:103B8C00304601F07EFE06F1180001F042FF30468F
:103B9C00C6F86C90FFF7C6FDA66DB045EFD1DFF807
:103BAC00C080D8F808309C423ED1EFF30589B9F1BA
:103BBC00000918BF4FF00109D8F81860294A96423D
:103BCC0000D00EB9D8F80C60B34202D0304600F0E9
:103BDC007BF82046C8F8146001F036FAB9F1000FF2
:103BEC0002D02148FFF77CFDD8F808309C4231D137
:103BFC00EFF3058373BB227BD20718D42846FFF75B
:103C0C0079FDFB07A4D5002383F31188BFF36F8FD5
:103C1C000423184602DF9BE703F07F0343F00803FD
:103C2C00437301F026FE9AE74FF00009C4E785F3D1
:103C3C001188BFF36F8F83F31188BFF36F8F042349
:103C4C00184602DFEFF31180102383F31288BFF3C1
:103C5C006F8FD4E785F31188BFF36F8FD1E700BF67
:103C6C00C0090020D8090020F00700200122044BD5
:103C7C00C01A044BC0105843034B1A54704700BF72
:103C8C0060080020ABAAAAAAF4090020C3897F2BE4
:103C9C0012D80A4B1B6863B1094B90F90E201B68B4
:103CAC009A4209DB437BDB0606D1064BC31A18BFCD
:103CBC00012303F0010070470023FAE7EC00002019
:103CCC00E40900201007002070B50E4B0E4C1E7C32
:103CDC00182303FB06440546204601F09AFE0022F9
:103CEC000A4B28469A55FFF7D1FF48B1084B20469E
:103CFC00BDE870401A680749013AD31700F06AB85A
:103D0C0070BD00BFC009002060080020F40900202D
:103D1C00EC000020793C000838B5EFF31185102336
:103D2C0083F31288BFF36F8F104B114A9C68106895
:103D3C00A04206D1FFF7C8FF85F31188BFF36F8F40
:103D4C0038BD00211B7C11600A4AD35C002BF3D0D8
:103D5C002046FFF79BFF0028EED0637BDB0602D1E9
:103D6C002046FFF759FD2046E4E700BFC0090020BC
:103D7C00E0090020F4090020024B1868984208BFA3
:103D8C0000207047F0000020034B1B680BB9FFF7B5
:103D9C00EBB90020704700BFE809002030B570B1C6
:103DAC000B4B5B6898420AD0036843B1D3E90421FA
:103DBC00D0E90445121941EB0501C3E90421D0E90E
:103DCC00003213605A600023C0E9003330BD00BFDD
:103DDC00F0000020B3F1FF3F08BFB2F1FF3F2DE927
:103DEC00F84F0446994615461F467AD08160EFF38A
:103DFC001188102383F31288BFF36F8FB9F1000F72
:103E0C00DFF8E4A020DBFFF7BFFFDAE9002701357C
:103E1C0049F100092D1849EBE07306464FF00109F2
:103E2C00C4E90453AD1843EB0707FFF7A5FF03469E
:103E3C00DFF8B8E0DEF804A0EBB9C4E900EACAF890
:103E4C000040CEF8044028E06FF00103DAE90012DC
:103E5C005B1A4FF0FF3161EB02025B1B62EB090254
:103E6C00012B72F10001BCBF012300224FF00009AD
:103E7C00C0E90432D9E7D3E9041CD4E904208A420E
:103E8C0070EB0C0B24DA891A5A686CEB0000C3E94E
:103E9C000410C4E9003214605C60FFF76DFF8442CB
:103EAC000ED1134B1B685BB9B9F1000F02D1FFF7B0
:103EBC006BFF0646304601F095FD0021FFF7D6F862
:103ECC0088F31188BFF36F8F28463946BDE8F88F09
:103EDC00521A60EB0C009A45C4E90420ADD01B6863
:103EEC00AAE700252F46EFE778080020F000002015
:103EFC00E80900202DE9F047EFF31185102383F337
:103F0C001288BFF36F8FDFF8A0900026C9F800006D
:103F1C000027FFF731FFDFF89480D9F80030D8E99B
:103F2C0000ECD91750B1D0E90442A34271EB020A5C
:103F3C001BDAE41A62EB0102C0E90442002413EB21
:103F4C000E034CEB01012046C8E90031C9F80040D2
:103F5C0001F048FD2146FFF789F885F31188BFF37E
:103F6C006F8FBDE8F047FFF7D7BE14EB0E024CEB9A
:103F7C00E473C0E90467C8E90023FFF70FFF85F37A
:103F8C001188BFF36F8F83689847EFF31185102367
:103F9C0083F31288BFF36F8FD9F800301B1BC9F85D
:103FAC000030FFF7E9FEB8E7E809002078080020A8
:103FBC0010B5EFF31184102383F31288BFF36F8FC6
:103FCC00FFF7E2FE0346054AD2E90001181841EB5F
:103FDC00E37184F31188BFF36F8F10BD7808002054
:103FEC00F8B50546EFF31187102383F31288BFF35E
:103FFC006F8F036823B187F31188BFF36F8FF8BD00
:10400C00D0E90A46611C46F10002022972F1000255
:10401C0036D3012C76F10002BCBF01241E46013CB4
:10402C0046F1FF3601F021FD013041F1000100198C
:10403C0046EB0101012871F1000130DB01F015FDA7
:10404C006FF00203013041F10001001946EB010150
:10405C0083426FF000438B4126DB01F006FD0130FB
:10406C0041F100016FF00102001946EB01034FF022
:10407C00FF31121A61EB030328461C49FFF7AAFE15
:10408C002B6B01332B632B6A93B93C462B4653F8AD
:10409C00185F9D4200D0D5B984F31188ADE76FF05D
:1040AC0001024FF0FF33E7E700224FF00043E3E754
:1040BC0087F31188BFF36F8F28462B6A9847EFF36D
:1040CC001184102383F31288BFF36F8FDEE7284629
:1040DC0001F018FC0023EB6684F31188BFF36F8F9B
:1040EC002846BDE8F84001F0FEBB00BFED3F0008DC
:1040FC002DE9F04105461C4690461F46EFF311860C
:10410C00102383F31288BFF36F8FB4F1FF3F08BF06
:10411C00B2F1FF3F05D186F31188BFF36F8FBDE875
:10412C00F081002C09DB012A74F10003BCBF0122D1
:10413C00002412F1FF3844F1FF37284601F069FCE6
:10414C00DDE906010023C5E90A012B6342463B4623
:10415C0028460249FFF73EFEDDE700BFED3F0008B1
:10416C00014800F05BBB00BFDB6D00080CB430B540
:10417C008BB004460D462022002102A801F0ADFCB4
:10418C0002238DF80A300D4B002D0393069412DB9D
:10419C0001D06B1E1C440FAA0E9902A80794019221
:1041AC0000F00EF815B10022069B1A700BB0BDE89A
:1041BC00304002B070470024EDE700BFBD5B000843
:1041CC002DE9F04F43688DB00293837815469A071A
:1041DC00804640F10D8100240E78002E00F00A81FB
:1041EC00252E0BD04B1C0393013441463046029BC9
:1041FC0098470028C0F2F6800399EDE74E788B1CA7
:10420C00252E0393F0D00027B946BB46BBF11F0FF8
:10421C0038D8A6F12003102B0AD8DFE803F02A09BE
:10422C0009300909092109090928092D09091F0063
:10423C00A6F13003092B33D92A2E37D11BF0400FAE
:10424C0055F8043B40F08280002BA7BF99464BF0F9
:10425C00200BC3F100094BF0280B01E04BF0010BD4
:10426C00039B13F8016B0393002ECFD130E04BF07E
:10427C00020B4BF0040BF3E74BF0080BF0E74BF0A1
:10428C00100BEDE7BBF17F0F19D8A6F13003092B0A
:10429C00D2D81BF0400F03D00A2101FB0737DFE710
:1042AC000A214BF0200B01FB0939D9E72E2E06D140
:1042BC001BF0400F40F09E804BF0400BD0E76C2E73
:1042CC0031D02BD8682E36D06A2E3CD04C2E3AD01A
:1042DC00002F46F02003B8BF2BF04002A3F165017C
:1042EC00BCBF00271FFA82FB022901D9612B2FD1F9
:1042FC000727073525F00705DFF8A8A208351BF0BE
:10430C00080F66D056460AEB070B5E4563D1A4EB4B
:10431C000A0A06EB0A02A9EB07096FE1742E9FD07B
:10432C007A2E9DD0D4E71BF0800F18BF4BF4007B86
:10433C004BF0800B94E71BF4807F18BF4BF4007B91
:10434C004BF4807B8CE74BF4207B89E71F4687E797
:10435C00A6F16301122900F2F080DFE811F01300DE
:10436C004F00EE00EE00EE00EE004F00EE00EE000F
:10437C00EE00EE00EE00FE00E900EE00EE001B0089
:10438C00EE00AF0055F8043B01278DF818300DF105
:10439C00180AB4E755F804AB834BBAF1000F08BF09
:1043AC009A461BF0400F14BF39464FF0FF31504670
:1043BC0001F09BFB0746A2E741462020029B984751
:1043CC0000280FDB013EB742F6D34C44A41BB14688
:1043DC0098E74E46F7E7414616F8010B029B9847C3
:1043EC00002892DA98F8023043F0040388F802307F
:1043FC004FF0FF3420460DB0BDE8F08F1BF0800F5E
:10440C0034D01BF4007F2CD0073525F00705AA46C5
:10441C0069685AF8080B2BF010050029ADB237DA91
:10442C00404261EB410145F480650A230DF1180B04
:10443C005A4601F066FBA0EB0B0301936B0662D5A9
:10444C00019B25F001019F4289B240F3A180002E0F
:10445C0000F0998015F0100240F09C80BB460D4690
:10446C0023E0AA465AF8040BC117D4E7AA461BF45A
:10447C00807F5AF8041B01D10846F5E71BF4007F36
:10448C0015BF48B208B241F3C01141F3C031C2E7C5
:10449C0050EA0103C9D11BF0400FC6D0002FC4D184
:1044AC002BF01102BB4695B2019740F2064115EA7A
:1044BC0001021CBF00220BF1010B2CE00A232BF094
:1044CC0010021FFA82FB1BF0800C49D01BF4007108
:1044DC001DBF073525F00705AA46AA461ABF5AF88C
:1044EC00080B69685AF8040B50EA010545D12BF00A
:1044FC0016051BF0400FADB242D0002F40D12BF06F
:10450C00170295B2019715F0100248D0019B002EAE
:10451C0042D103F1010B29075AD4EB0706D5D94533
:10452C006FDDA9EB0B03CB4601995F185B4649E0A5
:10453C00102378264BF0100BC5E7782B04D1C6F16D
:10454C00780343F01003BEE741462520029B9847B1
:10455C000028FFF647AF023447E608230026B2E7EF
:10456C00AA461BF480715AF8040BBDD01BF40071E1
:10457C001ABF6146C0B280B2B6E72BF0060295B204
:10458C000DF1180B54E725F01105BB46ADB28CE7C5
:10459C000D46B8E73B460D4603F1020BBBE7DDF8D1
:1045AC0004B082E71D6E0008166E0008CDE90432D7
:1045BC0041462020029B98470028FFF613AF049B2E
:1045CC00059A01339945F1DCA4EB0B019B46CC1801
:1045DC000AB341463020029B98470028FFF602AFF1
:1045EC008EB901342744019B391B994223DC1D46AB
:1045FC0055BB5546019AA9EB0B092244144691442C
:10460C0034E0019F92E7414630460234029B9847C2
:10461C000028E7DAE6E640F206410D42E2D015F05A
:10462C00020F14BF2B20202015F4806F414618BFB9
:10463C002D200134EAE741463020029B98470028A0
:10464C0004F10104CFDACDE606AB013D585D4146DD
:10465C00029B98470028CBDAC4E641462020029BF7
:10466C009847002804F10104FFF6BCAEA9EB040343
:10467C00002BF2DCC0E500BF7047012303FA01F107
:10468C0003691B68194218BF82F0010212B18368DA
:10469C00DB68184783681B69FBE700EBC1004088A7
:1046AC0040087047F8B50346FFF7F7FFB0FA80F003
:1046BC00C0F11F0003EB800CDCF81060CA00171D62
:1046CC000C4606328DB256B9012101FA00F0D968B8
:1046DC000143D960CCF81040DD539D52F8BDF10078
:1046EC000431585AD85303EBC0009E52C5805D521A
:1046FC00F4E7043A2DE9F041CC1D114424F00704F1
:10470C0021F007010E1BF708B7FA87F24FF00008EB
:10471C00C2F12405AD000735C2F12002ED0804609A
:10472C004146A760C4F80C80920004F1100001F01F
:10473C00D4F96B0043F0010363807B1B04EBC502CF
:10474C005900A4F800805180A21924F83550A2F821
:10475C000280A35304EBC7035A88294642F0010296
:10476C005A802046BDE8F041FFF79CBF2DE9F04789
:10477C0006460D46174698462BB34FF0000A98F89C
:10478C00004093F80190DB78A40004EB430498F804
:10479C0002301C444444CA4509D339463046AC4621
:1047AC00D8F8042008F10803BDE8F047604714F876
:1047BC00013B0AF1010A204648F82340FBF7AAFC0A
:1047CC0001300444E7E76FF01500BDE8F08770B5E1
:1047DC00002502462846144614F8013B0BB918462E
:1047EC0009E098B18D4207D1702B04D0A3F140029F
:1047FC003A2A0BD8002070BDA3F140063A2E05D8FA
:10480C0053780135941C002BE9D00020252B22462F
:10481C0008BF80F00100DEE7002070470FB407B539
:10482C0004A951F8040B019100F099FA03B05DF85A
:10483C0004EB04B0704710B50369024613F008008E
:10484C0009D11368D4689C429BBF0120126AE31AF9
:10485C00D31A0B6010BD00231846FAE713B501A953
:10486C000446FFF7E8FF20B1019BE268013B1344CB
:10487C000193206A019BC01A013802B010BD10B51B
:10488C00044650182269236AD20702D5013B18400E
:10489C0010BD984228BFC01AFAE710B504460A4664
:1048AC00C168FFF7ECFF2369E06023F00803236184
:1048BC0010BD38B50D46C2698B00016843F0020388
:1048CC00044642F8213001682A46FFF7D8FFE36816
:1048DC006168984208BF2369206008BF43F0080351
:1048EC002A46204608BF2361FFF7C9FF606038BD28
:1048FC002DE9F74FC768C6699B4606EB8703009303
:10490C0016F82730044603F00303022B8846914621
:10491C004FF000030BD01360CBF8003023699B07DA
:10492C0013D44FF0000A504603B0BDE8F08F56F890
:10493C00271013608908CBF80030EFD0FFF7ADFFDC
:10494C00E368A3604FF0010AEDE7A36906EB87006B
:10495C00984716F82720054612F0010AE1D012F00C
:10496C0002021FD0B8F1000F03D041462046FFF7DA
:10497C00A0FF61682A462046FFF781FFD4E9022197
:10498C009142606006D12A462046FFF778FF4FF02F
:10499C00000AA060A2682260E260226942F008026C
:1049AC002261C0E7014620460192FFF776FFE368DB
:1049BC00A360B8F1000F04D02168E369019A43F8B1
:1049CC00212005EB0802CBF8002021682046FFF7D8
:1049DC0056FF2369206043F00803236116F8273043
:1049EC006FF3000306F82730009BC9F80030A9E7E5
:1049FC0070B504461546FFF742FF2368834205D184
:104A0C002369216023F00803236170BDE269AB00C8
:104A1C0043F0020342F8213061682A462046FFF732
:104A2C002EFF6060F1E738B5036904465B0706D5D5
:104A3C00456AFFF713FF85422CBF6562606238BD83
:104A4C0038B50D4604461C22002101F046F8002220
:104A5C00EB68A361AB6863612B68E3616B686262AE
:104A6C0023622A6923B1591E194208BF42F0010280
:104A7C002261012204F128000021BDE8384000F039
:104A8C00E1BE2DE9F04F002587B00093036A044680
:104A9C008B420E469246A9460395059539D3EFF302
:104AAC00118B102383F31288BFF36F8F059AD846AE
:104ABC002AB129462046FFF79BFF0023059304A942
:104ACC002046FFF7B8FE04990746B1422AD3226864
:104ADC00E369204613F8221003EB820921F003014D
:104AEC0003F8221021683246FFF7C9FEE368206004
:104AFC00984212D0002788F31188BFF36F8F039967
:104B0C0029B162690AB12046904700230393002F14
:104B1C00C5D1484607B0BDE8F08F236943F00803C0
:104B2C002361E7E718B12046FFF7C3FEE3E7009BDC
:104B3C005AEA03021CD0019100F090FE0199B8B919
:104B4C00BBF1000F14D187F31188BFF36F8F52465E
:104B5C00009B04F12800FEF739FDEFF311881023B8
:104B6C0083F31288BFF36F8FB0FA80F77F09C2E727
:104B7C00204605AB03AA2568FFF7BAFE0746BAE73D
:104B8C0070B50446836908460D4698470246EFF314
:104B9C001186102383F31288BFF36F8F2B78204676
:104BAC0043F001032B706168FFF769FE60602046DB
:104BBC00FFF739FF86F31188BFF36F8F70BD2DE9B6
:104BCC00F04104461027EFF3118687F31288BFF3E8
:104BDC006F8F236913F0080FA36802D162689342A8
:104BEC0000D9226AD21AE16932B986F31188BFF36F
:104BFC006F8F4FF0000833E011F8232001EB83088E
:104C0C0012F00300F1D0022803D151F82350AD0863
:104C1C0005D1D00712D44046A36998470546A16830
:104C2C002A462046FFF72BFE2946A0602046FFF7B8
:104C3C0034FE86F31188BFF36F8FC4E742F0020293
:104C4C0001F82320A3694046A568984729460246E7
:104C5C002046FFF714FEA06086F31188BFF36F8F18
:104C6C004046BDE8F081F8B50446836908460D4618
:104C7C0098470646EFF31187102383F31288BFF38E
:104C8C006F8F2B786FF300032B7023699B0705D56F
:104C9C00E268E36903EB82039D421AD12B786FF330
:104CAC0041032B70D4E90231994204D1324620469B
:104CBC00FFF7E5FDA06031462046FFF7EEFD87F3D8
:104CCC001188BFF36F8F04F12800BDE8F840FEF7A0
:104CDC0049BC2B6860F39F032B60F0E7EFF3118165
:104CEC00102383F31288BFF36F8F036913F0080F3F
:104CFC00836802D14268934200D9026AD31A81F3C5
:104D0C001188BFF36F8F181E18BF012070477047B2
:104D1C0003785B075FBF03684288C3F34A2303EB46
:104D2C0012105DBF173020F007008008002070477C
:104D3C00002070470346BFF35B8F53E8000F421C03
:104D4C0043E800210029F8D1BFF35B8F704708B509
:104D5C0000F08BFE0A220023FBF7C2F908BD1FB539
:104D6C000023CDE902011A4619461846CDE9003355
:104D7C00FCF73AFB05B05DF804FB0120FCF7E8B842
:104D8C00002070474368DA71012243681960436858
:104D9C005A71FCF7CFB870B515460C4669B1D2E91B
:104DAC0001369B1B99420AD813680A46014698198A
:104DBC0000F085FEAB682344AB60204670BD6FF0FD
:104DCC001B00FBE770B50E4615461946044618B98C
:104DDC00BDE87040FCF7BCB833B1C2F34A231030C5
:104DEC00120D184400F06BFEC4E900562046BDE8D5
:104DFC007040FCF755BA2DE9F3415F1C4FEA870868
:104E0C00064608F1170020F0070080080C461546EE
:104E1C00FCF720F900238DF80470ADF805308DF8FF
:104E2C00073068B10346019AA8F1040143F8102F2A
:104E3C002A46294452F8045B8A4243F8045FF9D1AC
:104E4C0000233146A20102F4E07242EA482222F029
:104E5C007F4222F4700222F03F0202B0BDE8F04122
:104E6C00FFF7B0BF07B50123019201AAFFF7C3FFFB
:104E7C0003B05DF804FB07B5CDE9002302236A46B5
:104E8C00FFF7B9FF03B05DF804FB1FB5CDE90123B3
:104E9C00069B01AA03930323FFF7ADFF05B05DF852
:104EAC0004FBF8B506460D4614461F4604B9F8BD7A
:104EBC00214628463A46B047241A0544F6E710B571
:104ECC00426804460CCA81680068FFF7EAFF0022BA
:104EDC0063681A6010BD38B54B6805461A68CB6814
:104EEC000C469A4202D10846FFF7E9FF6368BFF30C
:104EFC005B8F53E8002F511C43E800100028F8D1B9
:104F0C00BFF35B8FA36800209D5438BD0A2838B5C9
:104F1C0004460D4602D10D20FFF7DDFF2946204641
:104F2C00FFF7D9FF002038BD2DE9F043054687B0C7
:104F3C0008460E8891F800900C46D1F80880174668
:104F4C00FCF7A2FA011EC6F38216C9F3C2091EDBD6
:104F5C004846FCF7B7F90346214651F8102B6088F8
:104F6C00C2F34A22002A01EB020408BF00210022EE
:104F7C00C0F30B10CDE90407CDE9021428464146D5
:104F8C0001960092FCF7ACFA07B0BDE8F083002361
:104F9C00E2E7436800201B685B681961704743684F
:104FAC001B681A6852685360704701212DE9F04163
:104FBC0043681B685A6811751D682F68D5E901365E
:104FCC00D3E900481CB96B681C60BDE8F081214630
:104FDC0030464246B847241A0644F3E743681B6838
:104FEC001868FCF7E7BB70B543680C461D686B6826
:104FFC001869FBF789FF214603460F222868BDE894
:10500C007040184700F069BD00F059BD01460068BA
:10501C00FCF74CBC08B5FCF7A3FCBDE80840FCF75A
:10502C00C3BC0A460121FFF71DBF00210120FCF77C
:10503C003DBC08B5FCF75CFFFCF710FCFCF71AFC58
:10504C00FCF7A4FFFEF72AFA6FF08500704761B6F3
:10505C0062B680F31188BFF36F8F704772B600236E
:10506C0083F31188BFF36F8FBFF34F8F30BF62B6DE
:10507C00BFF36F8F704708B5D1E904319847002012
:10508C0008BD08B5FCF7BCFF002008BD08B506221A
:10509C0001210020FCF7DAFF002206201146FCF764
:1050AC0011FF012107220846FCF7D0FF0022072040
:1050BC001146FCF707FF082201210220FCF7C6FF6E
:1050CC00002208201146FCF7FDFE092201210320D5
:1050DC00FCF7BCFF002209201146FCF7F3FE0A2264
:1050EC0001210420FCF7B2FF00220A201146FCF734
:1050FC00E9FE052117220846FCF7A8FF002217201D
:10510C001146FCF7DFFE282206210A20FCF79EFF41
:10511C00002228201146FCF7D5FE002008BD0120F6
:10512C0001F01F01884070470F2300F00302043286
:10513C009200934043EA9000020C92FAA2F2B2FA67
:10514C0082F210B5C3B29B0003F1804303F58033A8
:10515C009C68914024EA10400143996010BD0020E6
:10516C007047002208B512201146FCF7ABFEBDE8D3
:10517C0008401220FCF798BE0A460121FFF772BEC8
:10518C00D0E92432C0F898205B681A68936843F41D
:10519C00A0039360704710B4BFF35B8F03460838CD
:1051AC0050E8002F511C40E80014002CF8D1BFF33C
:1051BC005B8F12B910BCFFF7E3BF6FF00F0210BC8E
:1051CC009A6570470B8882B0C3F30B0303F6EC723D
:1051DC00C2F30B02082A14D803F1804303F50433FD
:1051EC001A684868024300201A600B88C3F30B034B
:1051FC0003F1804303F504331B680193019B02B058
:10520C0070476FF08500FAE70B88C3F30B0303F6C6
:10521C00EC72C2F30B02082A9FBF03F1804303F523
:10522C0004331A6849689BBF00208A436FF08500DD
:10523C001A607047092809D840F2EA33C34013F0CA
:10524C00010F14BF00206FF0850070476FF08500D0
:10525C00704710B50888C0F30B00FFF7EBFF002870
:10526C001FDB4A68FF2A1BD093B203F1804303F57E
:10527C0004331868C2F38454C2F3054204FA02F2F0
:10528C0020EA02021A6049688BB203F1804303F5ED
:10529C0004331868CA0EC1F305418A4002431A60F0
:1052AC00002010BD088808B5C0F30B0000F6EC73A5
:1052BC00C3F30B03082B0AD800F1804000F504302F
:1052CC0002684B68934314BF0120022008BDFFF70E
:1052DC00B1FF002814BF01200220F7E7704700201F
:1052EC0070477047436800205B689B680B60704791
:1052FC0043685B68D86842400A404240DA6000204C
:10530C007047436800205B68196170474368002050
:10531C005B6859617047436800205A68D3684B40FA
:10532C00D360704710B503699868F8B1884219D1F9
:10533C00DC680868A142986000D1D8600020086041
:10534C002AB19A680A60DA68996002B9D9600020BB
:10535C0010E0814206D108682060D8688142EDD106
:10536C00DC60EBE7044600680028F2D1002AE8D1A3
:10537C006FF0150010BD91FAA1F3B3FA83F370B579
:10538C000D0E0F2691FAA1F1B1FA81F144599B004F
:10539C0006FA03F3890024EA03048A4022434251AB
:1053AC0070BD91FAA1F3B3FA83F370B50D0E032619
:1053BC0091FAA1F1B1FA81F144599B0006FA03F379
:1053CC00890024EA03048A402243425170BD91FAB9
:1053DC00A1F3B3FA83F370B50D0E042691FAA1F183
:1053EC00B1FA81F144599B0006FA03F3890024EACF
:1053FC0003048A402243425170BD70B50B46896844
:10540C00054611B15E680C6801B970BD8A682A4006
:10541C0002D030464B6898471CB1236821461C4685
:10542C00F2E72346FAE770B501241546072904FA7A
:10543C0001F288BF01F007014FEA022385BF8C40BF
:10544C001C4342EA030444F08064EA07406822D417
:10545C0015F0060204D12146BDE87040FFF78BBF62
:10546C00022A01D10422F6E705F4C075802D6FEAFB
:10547C0014264FEA14220BD192FAA2F20123B2FAAB
:10548C0082F2C168934031400B430822C360E2E7CB
:10549C00C3683340F9E76B0654BF01220922214649
:1054AC00FFF769FF15F0200218BF0422214605F012
:1054BC001805FFF78CFF082D05D102222146BDE807
:1054CC007040FFF76EBF0DB90122F7E70322F5E735
:1054DC00F8B50646076912F400300D46134622D083
:1054EC009A0719D55C0769D5212213F0100F03F424
:1054FC00403413D042F08402002C39D11803716867
:10550C0055D501234968AB400B6129467068FFF7FC
:10551C008AFF002C3AD111E00122E6E7990648BF38
:10552C0042F48272E8E712F4803203F4403410D172
:10553C00F4B9224629467068FFF775FF3B6923FAD8
:10554C0005F2D20722D50122AA4023EA02033B61CD
:10555C001CE0D90608D49A0602D444B90224E8E720
:10556C00B4B94FF48274E4E7ACB98424E1E70222C5
:10557C00D7F810C02CFA05F1C9070ED5D6F804C01F
:10558C000028BBD129466046FFF74DFF0020F8BD2F
:10559C004FF48272ECE78422EAE70121A94041EA48
:1055AC000C0139610028A9D129467068ECE7580331
:1055BC0041BF01234968AB404B61A6E76FF0850002
:1055CC00E5E7F8B51F46044640680E461546FFF75A
:1055DC002AFF032F08D1012303FA06F66368AA05F4
:1055EC005B684CBF1E615E610020F8BD30B503687E
:1055FC0013600579046804EBC504A34202D36FF071
:10560C00010030BD5C798C4201D00833F0E70020FA
:10561C00F7E74368C1F34B101B6801F01F01C0583A
:10562C0001238B40034214BF01230023002013707D
:10563C00704710B54368C1F34B101A6801238458A6
:10564C0001F01F018B4023438350002010BD012229
:10565C0010B54368C1F34B14186801F01F012358AF
:10566C008A4023EA02032350002010BD38B50446BB
:10567C000D46FFF7DEFF29462046FFF7E8FF002026
:10568C0038BD036882B00193019B43680193019B71
:10569C0002B0704708B54368186802680368C2F323
:1056AC00C002D907036848BF42F002029B07036897
:1056BC0048BF42F004025907036848BF42F0200279
:1056CC00DB0542BF6FF4807342F008020360D10720
:1056DC0001D5FFF7D6FF930701D5FFF7D2FF51078E
:1056EC0001D5FFF7CEFF930601D5FFF7CAFF104691
:1056FC0008BD10B5436810201B681A681206FCD54B
:10570C00EFF3118280F31288BFF36F8F1C682406AD
:10571C0004D482F31188BFF36F8FEEE7596082F3E4
:10572C001188BFF36F8F10BD08B543681868036804
:10573C001A0701D5FFF7A5FF03689B0649BF43680D
:10574C004FF0FF3000200B7008BD03695B681B68CD
:10575C000B6043681B68DB6803F4C063B3F5806FB0
:10576C002FD0A3F5C06CDCF1000343EB0C030B71E1
:10577C0043681B681B6903F44053B3F5805F22D068
:10578C00B3F5405F21D0002B0CBF012303234B71D9
:10579C0043681B68DA68DB68D20403F4C06316D56F
:1057AC00002B14BF032304238B71436800201B6858
:1057BC005B6903F44073A3F5407253425341CB71C0
:1057CC0070470223D3E70023E1E70223DFE7002B36
:1057DC0014BF02230323E7E710B5436904463BB922
:1057EC000020E2684042537843F00103537010BD2F
:1057FC0098470028F4D00028B8BF4042FF28A8BF23
:10580C00FF20E3681870ECE740B1C368587810F0DB
:10581C0001001EBF1878B0FA80F040097047EFF312
:10582C001183102383F31288BFF36F8FFEE71024CC
:10583C0008B5EFF3118384F31288BFF36F8FFFF772
:10584C000DFCF6E73AB18A4205D3C0E90212C0E971
:10585C000000002070476FF015007047EFF30580D3
:10586C00003818BF012070476FF0570070470020B8
:10587C007047D0E9003213605A600023C0E900334E
:10588C00704708B5FFF7F5FF437B23F00203437322
:10589C000023836008BD38B504460D46FDF784FF30
:1058AC00637B43F002036373E5B1A5602B689D42F3
:1058BC0009D16B68C4E900531C606C6012E06A6823
:1058CC009A42F6D01B68002BF3D094F90E2093F972
:1058DC000E108A42F3D09142F1DD5A68C4E90032CD
:1058EC0014605C6038BD10B5EFF31184102383F3A2
:1058FC001288BFF36F8FFDF715FF84F31188BFF388
:10590C006F8F10BD08B5EFF31181102282F312884E
:10591C00BFF36F8F83680BB1FFF7B3FF81F311886F
:10592C00BFF36F8F08BD014610B5EFF31184102340
:10593C0083F31288BFF36F8F437B13F0280F0AD1C8
:10594C0083680BB1FFF79DFF4B7B084623F00403E4
:10595C004B73FDF7E7FE84F31188BFF36F8F10BD17
:10596C0001211838FFF7DFBF08B50346EFF31181AB
:10597C00102282F31288BFF36F8F0068834207D026
:10598C0008B1FFF77EFF81F31188BFF36F8F08BD5D
:10599C000020F8E738B504460D46FEF761F8B5F17E
:1059AC00FF3F08BFB4F1FF3F0346204614D013F16C
:1059BC0009004FEAE37141F100010A2871F100037B
:1059CC000BD36FF00A0383424FF004038B4106D3D1
:1059DC000A220023FAF784FB38BD0020FCE76FF0A5
:1059EC000040F9E708B50246FEF7C6F970B1D0E9F8
:1059FC0004319B1A61EBE272B3F1004F72F10001BA
:105A0C0004DA002AACBF1846002008BD6FF0004035
:105A1C00FBE7024638B5EFF31185102383F31288A8
:105A2C00BFF36F8F0368CBB1FEF7A6F9044610469F
:105A3C00FEF7B4F900224FF000438442C0E904237E
:105A4C0006D1FEF7A1F9FFF7CDFF0021FDF70EFB04
:105A5C00002085F31188BFF36F8F38BD6FF01500F0
:105A6C00F7E708B5FEF7A4FA08BDFEF7A1BA0023C4
:105A7C00C0E9081200F11802C0E90622C0E900339F
:105A8C0003634363704710B50446FFF7C2FFA8B920
:105A9C00636A0BB12046984704F11800FFF764FFC6
:105AAC0060B1FFF720FFEFF31180102383F312880E
:105ABC00BFF36F8FBDE81040FDF72ABF10BD0A443D
:105ACC00914200F1FF3300D1704710B511F8014B32
